{
  "_format": "hh-sol-artifact-1",
  "contractName": "Crowdfunding",
  "sourceName": "contracts/Crowdfunding.sol",
  "abi": [
    {
      "anonymous": false,
      "inputs": [
        {
          "indexed": false,
          "internalType": "address",
          "name": "projectAddress",
          "type": "address"
        },
        {
          "indexed": false,
          "internalType": "uint256",
          "name": "contributedAmount",
          "type": "uint256"
        },
        {
          "indexed": false,
          "internalType": "address",
          "name": "contributor",
          "type": "address"
        }
      ],
      "name": "ContributionReceived",
      "type": "event"
    },
    {
      "anonymous": false,
      "inputs": [
        {
          "indexed": false,
          "internalType": "address",
          "name": "projectContractAddress",
          "type": "address"
        },
        {
          "indexed": false,
          "internalType": "address",
          "name": "creator",
          "type": "address"
        },
        {
          "indexed": false,
          "internalType": "uint256",
          "name": "minimumContribution",
          "type": "uint256"
        },
        {
          "indexed": false,
          "internalType": "uint256",
          "name": "deadline",
          "type": "uint256"
        },
        {
          "indexed": false,
          "internalType": "uint256",
          "name": "targetContribution",
          "type": "uint256"
        },
        {
          "indexed": false,
          "internalType": "uint256",
          "name": "raisedAmount",
          "type": "uint256"
        },
        {
          "indexed": false,
          "internalType": "uint256",
          "name": "noOfContributors",
          "type": "uint256"
        },
        {
          "indexed": false,
          "internalType": "string",
          "name": "projectTitle",
          "type": "string"
        },
        {
          "indexed": false,
          "internalType": "string",
          "name": "projectDesc",
          "type": "string"
        }
      ],
      "name": "projectStarted",
      "type": "event"
    },
    {
      "inputs": [
        {
          "internalType": "address",
          "name": "_projectAddress",
          "type": "address"
        }
      ],
      "name": "contribute",
      "outputs": [],
      "stateMutability": "payable",
      "type": "function"
    },
    {
      "inputs": [
        {
          "internalType": "uint256",
          "name": "minimumContribution",
          "type": "uint256"
        },
        {
          "internalType": "uint256",
          "name": "deadline",
          "type": "uint256"
        },
        {
          "internalType": "uint256",
          "name": "targetContribution",
          "type": "uint256"
        },
        {
          "internalType": "string",
          "name": "projectTitle",
          "type": "string"
        },
        {
          "internalType": "string",
          "name": "projectDesc",
          "type": "string"
        }
      ],
      "name": "createProject",
      "outputs": [],
      "stateMutability": "nonpayable",
      "type": "function"
    },
    {
      "inputs": [],
      "name": "returnAllProjects",
      "outputs": [
        {
          "internalType": "address[]",
          "name": "",
          "type": "address[]"
        }
      ],
      "stateMutability": "view",
      "type": "function"
    }
  ],
  "bytecode": "0x6080604052348015600f57600080fd5b506136728061001f6000396000f3fe6080604052600436106100345760003560e01c806373e888fd1461003957806385b6e28e14610055578063a429078b14610080575b600080fd5b610053600480360381019061004e919061056b565b6100a9565b005b34801561006157600080fd5b5061006a6102e5565b6040516100779190610656565b60405180910390f35b34801561008c57600080fd5b506100a760048036038101906100a291906107f4565b6103e9565b005b60008173ffffffffffffffffffffffffffffffffffffffff1663937e09b16040518163ffffffff1660e01b8152600401602060405180830381865afa1580156100f6573d6000803e3d6000fd5b505050506040513d601f19601f8201168201806040525081019061011a91906108bc565b905060008273ffffffffffffffffffffffffffffffffffffffff1663c19d93fb6040518163ffffffff1660e01b8152600401602060405180830381865afa158015610169573d6000803e3d6000fd5b505050506040513d601f19601f8201168201806040525081019061018d919061090e565b9050600060028111156101a3576101a261093b565b5b8160028111156101b6576101b561093b565b5b146101f6576040517f08c379a00000000000000000000000000000000000000000000000000000000081526004016101ed906109c7565b60405180910390fd5b81341015610239576040517f08c379a000000000000000000000000000000000000000000000000000000000815260040161023090610a33565b60405180910390fd5b8273ffffffffffffffffffffffffffffffffffffffff166373e888fd34336040518363ffffffff1660e01b81526004016102739190610a62565b6000604051808303818588803b15801561028c57600080fd5b505af11580156102a0573d6000803e3d6000fd5b50505050507f0829c5c9dc5d14e41b11cfca0f01f76eba69b648ddcf9f84afba16ba8a76bf1c8334336040516102d893929190610a8c565b60405180910390a1505050565b60606000808054905067ffffffffffffffff811115610307576103066106c9565b5b6040519080825280602002602001820160405280156103355781602001602082028036833780820191505090505b50905060005b6000805490508110156103e1576000818154811061035c5761035b610ac3565b5b9060005260206000200160009054906101000a900473ffffffffffffffffffffffffffffffffffffffff1682828151811061039a57610399610ac3565b5b602002602001019073ffffffffffffffffffffffffffffffffffffffff16908173ffffffffffffffffffffffffffffffffffffffff1681525050808060010191505061033b565b508091505090565b83426103f59190610b21565b9350600033868686868660405161040b906104ec565b61041a96959493929190610bc3565b604051809103906000f080158015610436573d6000803e3d6000fd5b5090506000819080600181540180825580915050600190039060005260206000200160009091909190916101000a81548173ffffffffffffffffffffffffffffffffffffffff021916908373ffffffffffffffffffffffffffffffffffffffff1602179055507f45d86589bd19f3cc2e4e8dcd2aea6d2dd9a8f02bd43243406e2e6331410c227f81338888886000808a8a6040516104dc99989796959493929190610c77565b60405180910390a1505050505050565b61292a80610d1383390190565b6000604051905090565b600080fd5b600080fd5b600073ffffffffffffffffffffffffffffffffffffffff82169050919050565b60006105388261050d565b9050919050565b6105488161052d565b811461055357600080fd5b50565b6000813590506105658161053f565b92915050565b60006020828403121561058157610580610503565b5b600061058f84828501610556565b91505092915050565b600081519050919050565b600082825260208201905092915050565b6000819050602082019050919050565b6105cd8161052d565b82525050565b60006105df83836105c4565b60208301905092915050565b6000602082019050919050565b600061060382610598565b61060d81856105a3565b9350610618836105b4565b8060005b8381101561064957815161063088826105d3565b975061063b836105eb565b92505060018101905061061c565b5085935050505092915050565b6000602082019050818103600083015261067081846105f8565b905092915050565b6000819050919050565b61068b81610678565b811461069657600080fd5b50565b6000813590506106a881610682565b92915050565b600080fd5b600080fd5b6000601f19601f8301169050919050565b7f4e487b7100000000000000000000000000000000000000000000000000000000600052604160045260246000fd5b610701826106b8565b810181811067ffffffffffffffff821117156107205761071f6106c9565b5b80604052505050565b60006107336104f9565b905061073f82826106f8565b919050565b600067ffffffffffffffff82111561075f5761075e6106c9565b5b610768826106b8565b9050602081019050919050565b82818337600083830152505050565b600061079761079284610744565b610729565b9050828152602081018484840111156107b3576107b26106b3565b5b6107be848285610775565b509392505050565b600082601f8301126107db576107da6106ae565b5b81356107eb848260208601610784565b91505092915050565b600080600080600060a086880312156108105761080f610503565b5b600061081e88828901610699565b955050602061082f88828901610699565b945050604061084088828901610699565b935050606086013567ffffffffffffffff81111561086157610860610508565b5b61086d888289016107c6565b925050608086013567ffffffffffffffff81111561088e5761088d610508565b5b61089a888289016107c6565b9150509295509295909350565b6000815190506108b681610682565b92915050565b6000602082840312156108d2576108d1610503565b5b60006108e0848285016108a7565b91505092915050565b600381106108f657600080fd5b50565b600081519050610908816108e9565b92915050565b60006020828403121561092457610923610503565b5b6000610932848285016108f9565b91505092915050565b7f4e487b7100000000000000000000000000000000000000000000000000000000600052602160045260246000fd5b600082825260208201905092915050565b7f496e76616c696420737461746500000000000000000000000000000000000000600082015250565b60006109b1600d8361096a565b91506109bc8261097b565b602082019050919050565b600060208201905081810360008301526109e0816109a4565b9050919050565b7f436f6e747269627574696f6e20616d6f756e7420697320746f6f206c6f772100600082015250565b6000610a1d601f8361096a565b9150610a28826109e7565b602082019050919050565b60006020820190508181036000830152610a4c81610a10565b9050919050565b610a5c8161052d565b82525050565b6000602082019050610a776000830184610a53565b92915050565b610a8681610678565b82525050565b6000606082019050610aa16000830186610a53565b610aae6020830185610a7d565b610abb6040830184610a53565b949350505050565b7f4e487b7100000000000000000000000000000000000000000000000000000000600052603260045260246000fd5b7f4e487b7100000000000000000000000000000000000000000000000000000000600052601160045260246000fd5b6000610b2c82610678565b9150610b3783610678565b9250828201905080821115610b4f57610b4e610af2565b5b92915050565b600081519050919050565b60005b83811015610b7e578082015181840152602081019050610b63565b60008484015250505050565b6000610b9582610b55565b610b9f818561096a565b9350610baf818560208601610b60565b610bb8816106b8565b840191505092915050565b600060c082019050610bd86000830189610a53565b610be56020830188610a7d565b610bf26040830187610a7d565b610bff6060830186610a7d565b8181036080830152610c118185610b8a565b905081810360a0830152610c258184610b8a565b9050979650505050505050565b6000819050919050565b6000819050919050565b6000610c61610c5c610c5784610c32565b610c3c565b610678565b9050919050565b610c7181610c46565b82525050565b600061012082019050610c8d600083018c610a53565b610c9a602083018b610a53565b610ca7604083018a610a7d565b610cb46060830189610a7d565b610cc16080830188610a7d565b610cce60a0830187610c68565b610cdb60c0830186610c68565b81810360e0830152610ced8185610b8a565b9050818103610100830152610d028184610b8a565b90509a995050505050505050505056fe60806040526000600960006101000a81548160ff0219169083600281111561002a576100296100ea565b5b02179055506000600c5534801561004057600080fd5b5060405161292a38038061292a83398181016040528101906100629190610322565b856000806101000a81548173ffffffffffffffffffffffffffffffffffffffff021916908373ffffffffffffffffffffffffffffffffffffffff16021790555084600181905550836002819055508260038190555081600790816100c691906105fe565b5080600890816100d691906105fe565b5060006005819055505050505050506106d0565b7f4e487b7100000000000000000000000000000000000000000000000000000000600052602160045260246000fd5b6000604051905090565b600080fd5b600080fd5b600073ffffffffffffffffffffffffffffffffffffffff82169050919050565b60006101588261012d565b9050919050565b6101688161014d565b811461017357600080fd5b50565b6000815190506101858161015f565b92915050565b6000819050919050565b61019e8161018b565b81146101a957600080fd5b50565b6000815190506101bb81610195565b92915050565b600080fd5b600080fd5b6000601f19601f8301169050919050565b7f4e487b7100000000000000000000000000000000000000000000000000000000600052604160045260246000fd5b610214826101cb565b810181811067ffffffffffffffff82111715610233576102326101dc565b5b80604052505050565b6000610246610119565b9050610252828261020b565b919050565b600067ffffffffffffffff821115610272576102716101dc565b5b61027b826101cb565b9050602081019050919050565b60005b838110156102a657808201518184015260208101905061028b565b60008484015250505050565b60006102c56102c084610257565b61023c565b9050828152602081018484840111156102e1576102e06101c6565b5b6102ec848285610288565b509392505050565b600082601f830112610309576103086101c1565b5b81516103198482602086016102b2565b91505092915050565b60008060008060008060c0878903121561033f5761033e610123565b5b600061034d89828a01610176565b965050602061035e89828a016101ac565b955050604061036f89828a016101ac565b945050606061038089828a016101ac565b935050608087015167ffffffffffffffff8111156103a1576103a0610128565b5b6103ad89828a016102f4565b92505060a087015167ffffffffffffffff8111156103ce576103cd610128565b5b6103da89828a016102f4565b9150509295509295509295565b600081519050919050565b7f4e487b7100000000000000000000000000000000000000000000000000000000600052602260045260246000fd5b6000600282049050600182168061043957607f821691505b60208210810361044c5761044b6103f2565b5b50919050565b60008190508160005260206000209050919050565b60006020601f8301049050919050565b600082821b905092915050565b6000600883026104b47fffffffffffffffffffffffffffffffffffffffffffffffffffffffffffffffff82610477565b6104be8683610477565b95508019841693508086168417925050509392505050565b6000819050919050565b60006104fb6104f66104f18461018b565b6104d6565b61018b565b9050919050565b6000819050919050565b610515836104e0565b61052961052182610502565b848454610484565b825550505050565b600090565b61053e610531565b61054981848461050c565b505050565b5b8181101561056d57610562600082610536565b60018101905061054f565b5050565b601f8211156105b25761058381610452565b61058c84610467565b8101602085101561059b578190505b6105af6105a785610467565b83018261054e565b50505b505050565b600082821c905092915050565b60006105d5600019846008026105b7565b1980831691505092915050565b60006105ee83836105c4565b9150826002028217905092915050565b610607826103e7565b67ffffffffffffffff8111156106205761061f6101dc565b5b61062a8254610421565b610635828285610571565b600060209050601f8311600181146106685760008415610656578287015190505b61066085826105e2565b8655506106c8565b601f19841661067686610452565b60005b8281101561069e57848901518255600182019150602085019450602081019050610679565b868310156106bb57848901516106b7601f8916826105c4565b8355505b6001600288020188555050505b505050505050565b61224b806106df6000396000f3fe6080604052600436106101095760003560e01c8063752e19f911610095578063b82c86d611610064578063b82c86d614610350578063c19d93fb1461037b578063c3e20c9f146103a6578063c59ee1dc146103d1578063d5cef133146103fc57610109565b8063752e19f914610292578063937e09b1146102bb578063992a7dfb146102e6578063a46752ae1461032757610109565b806329dcb0cf116100dc57806329dcb0cf146101cc5780634c4cea5a146101f75780634e695a37146102225780636f9fb98a1461024b57806373e888fd1461027657610109565b806302d05d3f1461010e57806303c29d58146101395780631f6d49421461016457806324274ee9146101a1575b600080fd5b34801561011a57600080fd5b50610123610427565b60405161013091906112d0565b60405180910390f35b34801561014557600080fd5b5061014e61044b565b60405161015b919061137b565b60405180910390f35b34801561017057600080fd5b5061018b600480360381019061018691906113ef565b6104d9565b6040516101989190611435565b60405180910390f35b3480156101ad57600080fd5b506101b66104f1565b6040516101c39190611435565b60405180910390f35b3480156101d857600080fd5b506101e16104f7565b6040516101ee9190611435565b60405180910390f35b34801561020357600080fd5b5061020c6104fd565b6040516102199190611435565b60405180910390f35b34801561022e57600080fd5b506102496004803603810190610244919061147c565b610503565b005b34801561025757600080fd5b506102606106e6565b60405161026d9190611435565b60405180910390f35b610290600480360381019061028b91906113ef565b6106ee565b005b34801561029e57600080fd5b506102b960048036038101906102b4919061147c565b610906565b005b3480156102c757600080fd5b506102d0610c15565b6040516102dd9190611435565b60405180910390f35b3480156102f257600080fd5b5061030d6004803603810190610308919061147c565b610c1b565b60405161031e9594939291906114c4565b60405180910390f35b34801561033357600080fd5b5061034e6004803603810190610349919061167f565b610d06565b005b34801561035c57600080fd5b50610365610f50565b6040516103729190611435565b60405180910390f35b34801561038757600080fd5b50610390610f56565b60405161039d9190611765565b60405180910390f35b3480156103b257600080fd5b506103bb610f69565b6040516103c8919061137b565b60405180910390f35b3480156103dd57600080fd5b506103e6610ff7565b6040516103f39190611435565b60405180910390f35b34801561040857600080fd5b50610411610ffd565b60405161041e9190611780565b60405180910390f35b60008054906101000a900473ffffffffffffffffffffffffffffffffffffffff1681565b60088054610458906117ca565b80601f0160208091040260200160405190810160405280929190818152602001828054610484906117ca565b80156104d15780601f106104a6576101008083540402835291602001916104d1565b820191906000526020600020905b8154815290600101906020018083116104b457829003601f168201915b505050505081565b600a6020528060005260406000206000915090505481565b60065481565b60025481565b60045481565b6000600a60003373ffffffffffffffffffffffffffffffffffffffff1673ffffffffffffffffffffffffffffffffffffffff1681526020019081526020016000205411610585576040517f08c379a000000000000000000000000000000000000000000000000000000000815260040161057c90611847565b60405180910390fd5b6000600b60008381526020019081526020016000209050600015158160030160003373ffffffffffffffffffffffffffffffffffffffff1673ffffffffffffffffffffffffffffffffffffffff16815260200190815260200160002060009054906101000a900460ff16151514610631576040517f08c379a0000000000000000000000000000000000000000000000000000000008152600401610628906118b3565b60405180910390fd5b60018160030160003373ffffffffffffffffffffffffffffffffffffffff1673ffffffffffffffffffffffffffffffffffffffff16815260200190815260200160002060006101000a81548160ff0219169083151502179055508060020160008154809291906106a090611902565b91905055507fa2925e4595bf873fa82c22a1a89809777347023bf2b502d32710157a5eb8199c3382600201546040516106da929190611959565b60405180910390a15050565b600047905090565b6000806002811115610703576107026116ee565b5b600960009054906101000a900460ff166002811115610725576107246116ee565b5b14610765576040517f08c379a000000000000000000000000000000000000000000000000000000000815260040161075c906119ce565b60405180910390fd5b60025442106107a9576040517f08c379a00000000000000000000000000000000000000000000000000000000081526004016107a090611a3a565b60405180910390fd5b6001543410156107ee576040517f08c379a00000000000000000000000000000000000000000000000000000000081526004016107e590611aa6565b60405180910390fd5b6000600a60008473ffffffffffffffffffffffffffffffffffffffff1673ffffffffffffffffffffffffffffffffffffffff168152602001908152602001600020540361084e576006600081548092919061084890611902565b91905055505b34600a60008473ffffffffffffffffffffffffffffffffffffffff1673ffffffffffffffffffffffffffffffffffffffff168152602001908152602001600020600082825461089d9190611ac6565b9250508190555034600560008282546108b69190611ac6565b925050819055507f5cdc4ab8d637538ead6cc1904d4160343656c8c82bd266635cfd31ac008fffe082346005546040516108f293929190611afa565b60405180910390a1610902611215565b5050565b60008054906101000a900473ffffffffffffffffffffffffffffffffffffffff1673ffffffffffffffffffffffffffffffffffffffff163373ffffffffffffffffffffffffffffffffffffffff1614610994576040517f08c379a000000000000000000000000000000000000000000000000000000000815260040161098b90611ba3565b60405180910390fd5b60028060028111156109a9576109a86116ee565b5b600960009054906101000a900460ff1660028111156109cb576109ca6116ee565b5b14610a0b576040517f08c379a0000000000000000000000000000000000000000000000000000000008152600401610a02906119ce565b60405180910390fd5b6002544210610a4f576040517f08c379a0000000000000000000000000000000000000000000000000000000008152600401610a4690611a3a565b60405180910390fd5b6000600b60008481526020019081526020016000209050600015158160040160009054906101000a900460ff16151514610abe576040517f08c379a0000000000000000000000000000000000000000000000000000000008152600401610ab590611c0f565b60405180910390fd5b6002600654610acd9190611c5e565b81600201541015610b13576040517f08c379a0000000000000000000000000000000000000000000000000000000008152600401610b0a90611d01565b60405180910390fd5b8060040160019054906101000a900473ffffffffffffffffffffffffffffffffffffffff1673ffffffffffffffffffffffffffffffffffffffff166108fc82600101549081150290604051600060405180830381858888f19350505050158015610b81573d6000803e3d6000fd5b5060018160040160006101000a81548160ff0219169083151502179055507f2af8d60b878c5e8de57c8ff96e03c6cfab6de26b47e989757345cc1dceaac99883826000018360010154846002015460018660040160019054906101000a900473ffffffffffffffffffffffffffffffffffffffff16604051610c0896959493929190611e19565b60405180910390a1505050565b60015481565b600b602052806000526040600020600091509050806000018054610c3e906117ca565b80601f0160208091040260200160405190810160405280929190818152602001828054610c6a906117ca565b8015610cb75780601f10610c8c57610100808354040283529160200191610cb7565b820191906000526020600020905b815481529060010190602001808311610c9a57829003601f168201915b5050505050908060010154908060020154908060040160009054906101000a900460ff16908060040160019054906101000a900473ffffffffffffffffffffffffffffffffffffffff16905085565b60008054906101000a900473ffffffffffffffffffffffffffffffffffffffff1673ffffffffffffffffffffffffffffffffffffffff163373ffffffffffffffffffffffffffffffffffffffff1614610d94576040517f08c379a0000000000000000000000000000000000000000000000000000000008152600401610d8b90611ba3565b60405180910390fd5b6002806002811115610da957610da86116ee565b5b600960009054906101000a900460ff166002811115610dcb57610dca6116ee565b5b14610e0b576040517f08c379a0000000000000000000000000000000000000000000000000000000008152600401610e02906119ce565b60405180910390fd5b6002544210610e4f576040517f08c379a0000000000000000000000000000000000000000000000000000000008152600401610e4690611a3a565b60405180910390fd5b6000600b6000600c5481526020019081526020016000209050600c6000815480929190610e7b90611902565b919050555084816000019081610e91919061200e565b508381600101819055506000816002018190555060008160040160006101000a81548160ff021916908315150217905550828160040160016101000a81548173ffffffffffffffffffffffffffffffffffffffff021916908373ffffffffffffffffffffffffffffffffffffffff1602179055507f9883a4e4f8698e4cc93bafb8d0d2376cb8c51dd322cb9fd80d02c691fcdea503600c54868660008088604051610f419695949392919061211b565b60405180910390a15050505050565b60035481565b600960009054906101000a900460ff1681565b60078054610f76906117ca565b80601f0160208091040260200160405190810160405280929190818152602001828054610fa2906117ca565b8015610fef5780601f10610fc457610100808354040283529160200191610fef565b820191906000526020600020905b815481529060010190602001808311610fd257829003601f168201915b505050505081565b60055481565b60006001806002811115611014576110136116ee565b5b600960009054906101000a900460ff166002811115611036576110356116ee565b5b14611076576040517f08c379a000000000000000000000000000000000000000000000000000000000815260040161106d906119ce565b60405180910390fd5b60025442106110ba576040517f08c379a00000000000000000000000000000000000000000000000000000000081526004016110b190611a3a565b60405180910390fd5b6000600a60003373ffffffffffffffffffffffffffffffffffffffff1673ffffffffffffffffffffffffffffffffffffffff168152602001908152602001600020541161113c576040517f08c379a0000000000000000000000000000000000000000000000000000000008152600401611133906121f5565b60405180910390fd5b60003390508073ffffffffffffffffffffffffffffffffffffffff166108fc600a60003373ffffffffffffffffffffffffffffffffffffffff1673ffffffffffffffffffffffffffffffffffffffff168152602001908152602001600020549081150290604051600060405180830381858888f193505050501580156111c6573d6000803e3d6000fd5b506000600a60003373ffffffffffffffffffffffffffffffffffffffff1673ffffffffffffffffffffffffffffffffffffffff1681526020019081526020016000208190555060019250505090565b60035460055410611250576002600960006101000a81548160ff02191690836002811115611246576112456116ee565b5b0217905550611286565b6002544210611285576001600960006101000a81548160ff0219169083600281111561127f5761127e6116ee565b5b02179055505b5b42600481905550565b600073ffffffffffffffffffffffffffffffffffffffff82169050919050565b60006112ba8261128f565b9050919050565b6112ca816112af565b82525050565b60006020820190506112e560008301846112c1565b92915050565b600081519050919050565b600082825260208201905092915050565b60005b8381101561132557808201518184015260208101905061130a565b60008484015250505050565b6000601f19601f8301169050919050565b600061134d826112eb565b61135781856112f6565b9350611367818560208601611307565b61137081611331565b840191505092915050565b600060208201905081810360008301526113958184611342565b905092915050565b6000604051905090565b600080fd5b600080fd5b60006113bc8261128f565b9050919050565b6113cc816113b1565b81146113d757600080fd5b50565b6000813590506113e9816113c3565b92915050565b600060208284031215611405576114046113a7565b5b6000611413848285016113da565b91505092915050565b6000819050919050565b61142f8161141c565b82525050565b600060208201905061144a6000830184611426565b92915050565b6114598161141c565b811461146457600080fd5b50565b60008135905061147681611450565b92915050565b600060208284031215611492576114916113a7565b5b60006114a084828501611467565b91505092915050565b60008115159050919050565b6114be816114a9565b82525050565b600060a08201905081810360008301526114de8188611342565b90506114ed6020830187611426565b6114fa6040830186611426565b61150760608301856114b5565b61151460808301846112c1565b9695505050505050565b600080fd5b600080fd5b7f4e487b7100000000000000000000000000000000000000000000000000000000600052604160045260246000fd5b61156082611331565b810181811067ffffffffffffffff8211171561157f5761157e611528565b5b80604052505050565b600061159261139d565b905061159e8282611557565b919050565b600067ffffffffffffffff8211156115be576115bd611528565b5b6115c782611331565b9050602081019050919050565b82818337600083830152505050565b60006115f66115f1846115a3565b611588565b90508281526020810184848401111561161257611611611523565b5b61161d8482856115d4565b509392505050565b600082601f83011261163a5761163961151e565b5b813561164a8482602086016115e3565b91505092915050565b61165c816112af565b811461166757600080fd5b50565b60008135905061167981611653565b92915050565b600080600060608486031215611698576116976113a7565b5b600084013567ffffffffffffffff8111156116b6576116b56113ac565b5b6116c286828701611625565b93505060206116d386828701611467565b92505060406116e48682870161166a565b9150509250925092565b7f4e487b7100000000000000000000000000000000000000000000000000000000600052602160045260246000fd5b6003811061172e5761172d6116ee565b5b50565b600081905061173f8261171d565b919050565b600061174f82611731565b9050919050565b61175f81611744565b82525050565b600060208201905061177a6000830184611756565b92915050565b600060208201905061179560008301846114b5565b92915050565b7f4e487b7100000000000000000000000000000000000000000000000000000000600052602260045260246000fd5b600060028204905060018216806117e257607f821691505b6020821081036117f5576117f461179b565b5b50919050565b7f4f6e6c7920636f6e7472696275746f72732063616e20766f7465210000000000600082015250565b6000611831601b836112f6565b915061183c826117fb565b602082019050919050565b6000602082019050818103600083015261186081611824565b9050919050565b7f596f7520616c726561647920766f746564000000000000000000000000000000600082015250565b600061189d6011836112f6565b91506118a882611867565b602082019050919050565b600060208201905081810360008301526118cc81611890565b9050919050565b7f4e487b7100000000000000000000000000000000000000000000000000000000600052601160045260246000fd5b600061190d8261141c565b91507fffffffffffffffffffffffffffffffffffffffffffffffffffffffffffffffff820361193f5761193e6118d3565b5b600182019050919050565b611953816113b1565b82525050565b600060408201905061196e600083018561194a565b61197b6020830184611426565b9392505050565b7f496e76616c696420737461746500000000000000000000000000000000000000600082015250565b60006119b8600d836112f6565b91506119c382611982565b602082019050919050565b600060208201905081810360008301526119e7816119ab565b9050919050565b7f446561646c696e65206861732070617373656421000000000000000000000000600082015250565b6000611a246014836112f6565b9150611a2f826119ee565b602082019050919050565b60006020820190508181036000830152611a5381611a17565b9050919050565b7f436f6e747269627574696f6e20616d6f756e7420697320746f6f206c6f772100600082015250565b6000611a90601f836112f6565b9150611a9b82611a5a565b602082019050919050565b60006020820190508181036000830152611abf81611a83565b9050919050565b6000611ad18261141c565b9150611adc8361141c565b9250828201905080821115611af457611af36118d3565b5b92915050565b6000606082019050611b0f600083018661194a565b611b1c6020830185611426565b611b296040830184611426565b949350505050565b7f596f7520646f6e7420686176652061636365737320746f20706572666f726d2060008201527f74686973206f7065726174696f6e210000000000000000000000000000000000602082015250565b6000611b8d602f836112f6565b9150611b9882611b31565b604082019050919050565b60006020820190508181036000830152611bbc81611b80565b9050919050565b7f5265717565737420616c726561647920636f6d706c6574656400000000000000600082015250565b6000611bf96019836112f6565b9150611c0482611bc3565b602082019050919050565b60006020820190508181036000830152611c2881611bec565b9050919050565b7f4e487b7100000000000000000000000000000000000000000000000000000000600052601260045260246000fd5b6000611c698261141c565b9150611c748361141c565b925082611c8457611c83611c2f565b5b828204905092915050565b7f4174206c6561737420353025206f662074686520636f6e7472696275746f727360008201527f206e65656420746f20766f746520666f72207468697320726571756573740000602082015250565b6000611ceb603e836112f6565b9150611cf682611c8f565b604082019050919050565b60006020820190508181036000830152611d1a81611cde565b9050919050565b60008190508160005260206000209050919050565b60008154611d43816117ca565b611d4d81866112f6565b94506001821660008114611d685760018114611d7e57611db1565b60ff198316865281151560200286019350611db1565b611d8785611d21565b60005b83811015611da957815481890152600182019150602081019050611d8a565b808801955050505b50505092915050565b6000819050919050565b6000611ddf611dda611dd58461128f565b611dba565b61128f565b9050919050565b6000611df182611dc4565b9050919050565b6000611e0382611de6565b9050919050565b611e1381611df8565b82525050565b600060c082019050611e2e6000830189611426565b8181036020830152611e408188611d36565b9050611e4f6040830187611426565b611e5c6060830186611426565b611e6960808301856114b5565b611e7660a0830184611e0a565b979650505050505050565b60006020601f8301049050919050565b600082821b905092915050565b600060088302611ece7fffffffffffffffffffffffffffffffffffffffffffffffffffffffffffffffff82611e91565b611ed88683611e91565b95508019841693508086168417925050509392505050565b6000611f0b611f06611f018461141c565b611dba565b61141c565b9050919050565b6000819050919050565b611f2583611ef0565b611f39611f3182611f12565b848454611e9e565b825550505050565b600090565b611f4e611f41565b611f59818484611f1c565b505050565b5b81811015611f7d57611f72600082611f46565b600181019050611f5f565b5050565b601f821115611fc257611f9381611d21565b611f9c84611e81565b81016020851015611fab578190505b611fbf611fb785611e81565b830182611f5e565b50505b505050565b600082821c905092915050565b6000611fe560001984600802611fc7565b1980831691505092915050565b6000611ffe8383611fd4565b9150826002028217905092915050565b612017826112eb565b67ffffffffffffffff8111156120305761202f611528565b5b61203a82546117ca565b612045828285611f81565b600060209050601f8311600181146120785760008415612066578287015190505b6120708582611ff2565b8655506120d8565b601f19841661208686611d21565b60005b828110156120ae57848901518255600182019150602085019450602081019050612089565b868310156120cb57848901516120c7601f891682611fd4565b8355505b6001600288020188555050505b505050505050565b6000819050919050565b60006121056121006120fb846120e0565b611dba565b61141c565b9050919050565b612115816120ea565b82525050565b600060c0820190506121306000830189611426565b81810360208301526121428188611342565b90506121516040830187611426565b61215e606083018661210c565b61216b60808301856114b5565b61217860a0830184611e0a565b979650505050505050565b7f596f7520646f6e74206861766520616e7920636f6e747269627574656420616d60008201527f6f756e7421000000000000000000000000000000000000000000000000000000602082015250565b60006121df6025836112f6565b91506121ea82612183565b604082019050919050565b6000602082019050818103600083015261220e816121d2565b905091905056fea264697066735822122044172a17546d637700e1d406c071eeb8a515bbaff20904017376c2ee3029dbf964736f6c634300081b0033a26469706673582212207175eeec8bd82781982c5a336e1383311aaf098b4181fd2bd9d8e73a47e4a6f664736f6c634300081b0033",
  "linkReferences": {},
  "deployedLinkReferences": {}
}